:020000040800F2
:10000000502A00208D02000895020008970200087F
:10001000990200089B0200089D02000800000000F1
:10002000000000000000000000000000F5010008D2
:10003000A10200080000000039020008F11F0008BA
:10004000A7020008A7020008A7020008A7020008EC
:10005000A7020008A7020008A7020008A7020008DC
:10006000A7020008A7020008A7020008A7020008CC
:10007000A7020008A7020008A7020008A7020008BC
:10008000A7020008A7020008A7020008A7020008AC
:10009000A7020008A7020008A7020008A70200089C
:1000A000A7020008A7020008A7020008A70200088C
:1000B000A7020008A7020008A7020008A70200087C
:1000C000A7020008A7020008A7020008A70200086C
:1000D000A702000849240008A7020008A702000898
:1000E000A7020008A7020008A702000800F002F813
:1000F00000F070F80AA090E8000C82448344AAF152
:100100000107DA4501D100F065F8AFF2090EBAE84F
:100110000F0013F0010F18BFFB1A43F0010318473B
:100120002C7600004C7600000A444FF0000C10F8CA
:10013000013B13F0070408BF10F8014B1D1108BF65
:1001400010F8015B641E05D010F8016B641E01F805
:10015000016BF9D113F0080F1EBF10F8014BAD1C55
:100160000C1B09D16D1E58BF01F801CBFAD505E073
:1001700014F8016B01F8016B6D1EF9D59142D6D3CD
:10018000704700000023002400250026103A28BFF5
:1001900078C1FBD8520728BF30C148BF0B607047F9
:1001A000662907F08881642900F0EC80752900F049
:1001B000E980732900F03485002070471FB500F0F6
:1001C00045FD04000020002106F056FDE0601FBD43
:1001D00010B510BD00F056FE1146FFF7EFFF03F01B
:1001E00069FD00F074FE03B4FFF7F2FF03BC02F0F8
:1001F000A4FA0000224B19680868B0E8F00F80F3F9
:100200000988BFF36F8F4FF0000080F311884EF024
:100210000D0E70470000000006480068006880F37B
:10022000088862B661B6BFF34F8FBFF36F8F00DFF0
:1002300000BF00BF08ED00E0EFF30980BFF36F8F50
:100240000F4B1A6820E9F00F106008B54FF050000E
:1002500080F31188BFF34F8FBFF36F8F05F0EAFE75
:100260004FF0000080F31188BDE808401968086865
:10027000B0E8F00F80F30988BFF36F8F704700BFBD
:100280009C000020EFF3058070470000094880477C
:1002900009480047FEE7FEE7FEE7FEE7FEE7FEE768
:1002A000FEE7FEE7FEE7FEE704480549054A064B80
:1002B0007047000025200008ED00000850240020B1
:1002C000502A002050260020502600200FB4044958
:1002D00010B503AA029800F0A7FC10BC5DF814FB4F
:1002E0009000002070B5044685690068C10601D5FC
:1002F000302600E02026C00707D070BDD4E90121D8
:1003000030469047206A401C20626D1EF6D570BDB5
:1003100070B5044685690078C00707D170BDD4E97F
:10032000012120209047206A401C20626D1EF6D5D6
:1003300070BD70B50C460546012A05D028788006A8
:1003400000D5EA69002302E0012305E05B1C93422B
:1003500002D2E05C0028F9D1A869E618C01AA861A9
:10036000286A184428622846FFF7BCFF04E0D5E954
:10037000012114F8010B9047B442F8D32846FFF747
:10038000C7FF70BD2DE9F0410646002410687529AD
:10039000314616A510D0AFF30080002802DA4042A3
:1003A00013A507E031688A0701D512A502E04907C5
:1003B00004D511A5012401E0AFF3008000210A2239
:1003C00006F1240709E0B0FBF2FCB0FBF2F302FBFC
:1003D0001C00303078541846491C0028F3D12346BD
:1003E0002A463046BDE8F04100F0A2B90000000006
:1003F0002D0000002B000000200000002DE9F05F20
:10040000894604464FF0000ADFF874B1FB44C0F897
:1004100020A02046E1688847002874D0252806D00F
:10042000D4E901219047206A401C2062F1E70026B0
:100430005F462046E16888472028054607DB312DC6
:1004400005D2781910F8200C08B10643F1E7B0077F
:1004500001D526F00406C4F81CA00027C4F818A093
:100460002A2D09D0284602F061F938B304EB870839
:10047000303DC8F8185019E059F8041B204604EB29
:1004800087029161E1688847012F054618D1E0692C
:10049000002820DA26F020061DE0D8F8180000EB2E
:1004A000800005EB40003038C8F818002046E168AD
:1004B0008847054602F03AF90028EED1012F0AD00C
:1004C0002E2D08D12046E16888477F1C0546022F63
:1004D00046F02006C4DBA069002803DA404246F05B
:1004E0000106A061F00701D026F010066C2D0BD09C
:1004F000682D09D04C2D39D06A2D35D0742D35D0CA
:100500007A2D33D016E038E0E1682F462046884740
:10051000B842054609D16C2F26D04FF48060E168BF
:10052000064320468847054604E06C2F1AD04FF456
:10053000807006430DB3A5F14100192802D820357B
:1005400046F400664A462946204626604E46FFF796
:1005500027FE80B101280BD0F61D26F0070000F120
:10056000080956E74020E4E78020D8E70020D6E7D6
:1005700006F104094DE7284652E7206ABDE8F09FDE
:100580008A710000032A40F2308010F0030C00F062
:10059000158011F8013BBCF1020F624498BF11F8BD
:1005A00001CB00F8013B38BF11F8013BA2F1040276
:1005B00098BF00F801CB38BF00F8013B11F00303EE
:1005C00000F02580083AC0F0088051F8043B083A52
:1005D00051F804CBA0E80810F5E7121D5CBF51F8F4
:1005E000043B40F8043BAFF30080D20724BF11F86E
:1005F000013B11F801CB48BF11F8012B24BF00F8D3
:10060000013B00F801CB48BF00F8012B704710B543
:10061000203AC0F00B80B1E81850203AA0E81850FA
:10062000B1E81850A0E81850BFF4F5AF5FEA027CBB
:1006300024BFB1E81850A0E8185044BF18C918C02A
:10064000BDE810405FEA827C24BF51F8043B40F8CB
:10065000043B08BF7047D20728BF31F8023B48BFB0
:1006600011F8012B28BF20F8023B48BF00F8012BEE
:10067000704702F0FF0343EA032242EA024200F01D
:1006800002B84FF000020429C0F0128010F0030CF1
:1006900000F01B80CCF1040CBCF1020F18BF00F875
:1006A000012BA8BF20F8022BA1EB0C0100F00DB824
:1006B0005FEAC17C24BF00F8012B00F8012B48BF82
:1006C00000F8012B70474FF0000200B51346944626
:1006D0009646203922BFA0E80C50A0E80C50B1F19A
:1006E0002001BFF4F7AF090728BFA0E80C5048BFAE
:1006F0000CC05DF804EB890028BF40F8042B08BF4C
:10070000704748BF20F8022B11F0804F18BF00F847
:10071000012B704770477047704710B500F09AFA88
:10072000006810BD10B5044600F094FA046010BDD6
:100730002DE9F0470D4699469246044600F12408FB
:100740000168880604D5E06921F01001216000E00D
:100750000120A84201DD471B00E00027A1697A19AA
:1007600002EB0900081AA0612078C00602D42046D6
:10077000FFF7B8FD002608E0D4E901211AF80600C9
:100780009047206A401C761C20624E45F4DB20789E
:10079000C0060AD52046FFF7A5FD06E0D4E90121F1
:1007A00030209047206A401C2062381EA7F10107C4
:1007B000F4DC07E0D4E9012118F805009047206A2D
:1007C000401C2062281EA5F10105F3DC2046FFF73E
:1007D0009FFD2078000602D50220BDE8F0870120A9
:1007E000FBE770472DE9FF4F0C461E464FF0FF37E1
:1007F0008BB0D2E90001DDF860800A908A46C1F32F
:100800000A5505B93D46002108464FF00000BAF1EF
:10081000000F00F4400005DA00EB80004FF44001C7
:1008200001EA50004FEA9059B9F1010F00DDB946D5
:100830000A9850EA4A000ED044F61050A5F2FF354F
:1008400045432F14B8F1000F1ED07542291E1EDD3E
:10085000C9F100021CE0B8F1010F4FF0000001D017
:10086000302103E0F24305E02154401CB042FBDBA1
:1008700030460022002121540B99C1F80880C1E9BB
:1008800000200FB0BDE8F08FBD1B6D1CDEE74A46AF
:1008900000DA694206A800F07FFA06AB93E8070089
:1008A00003AB83E8070050460A9900F057FB8DE838
:1008B0000700A0F500501F3800900398002D09DDB7
:1008C00042F21F014A46084403A90390684600F01B
:1008D000B6FD08E0A0F500504A461F3803A9039072
:1008E000684600F0C0FD8DE807000004000C03D04E
:1008F0004FF0FF30410800E01046B8F1000F03D080
:100900000022009215461EE0751E05D400F0A6F9DF
:10091000303262556D1EF9D5B3460122084302D02C
:1009200000227F1C04E02078302801D100227F1EA5
:10093000002A099786D01DE0112D07DA00F08EF904
:10094000303262556D1C50EA0102F5D1084302D0E5
:100950000098C8B10EE00021681E05E0235C625CCF
:1009600063542254401E491C8142F7DBAB46A81B4E
:10097000401E0990002004F80B000B98099AC0F85B
:100980000880C0E9002B7CE711264FF0000859E7EA
:100990002DE9F04F88460446D21D22F0070191B0A0
:1009A000D1E90001CDE90A0101F08BFE02460B9866
:1009B000C00F01D02D2007E02068810701D52B2032
:1009C00002E0202101EAC000032A099001D0072A91
:1009D00005DB03464146204600F09EF90BE12078F6
:1009E000800601D5E06900E00620B8F1650F814678
:1009F00006D0B8F1660F18D0B8F1670F70D131E0AA
:100A00000020B9F1110F009001DB112301E009F181
:100A100001030AAA01A90CA8FFF7E4FEDDE90C70A6
:100A2000002609F10105834647E001204B4600906E
:100A30004FF000470AAA01A90CA8FFF7D3FEDDE991
:100A40000DB00C995D46002610B909F101000D1892
:100A5000B9EB050003D4C0F1FF3609F10105A5EBA0
:100A600009002BE0B9F1010F01DA4FF00109002074
:100A7000B9F1110F0090484601DD112300E0034653
:100A80000AAA01A90CA8FFF7ADFEDDE90C704D46DE
:100A900000268346207800070AD4AB4500DA5D467D
:100AA00001A8012D04DD411911F8011C302907D0DE
:100AB0004F4502DA17F1040F04DA012082460FE0F5
:100AC0006D1EEEE7002F02DCED1B3E4403E0781CB8
:100AD000A84200DD7D1CB81B00F1010A4FF0004761
:100AE0002078000703D4AA4501DB4FF0FF3A00212C
:100AF000B7F1004F0DF143088DF8431024D00220C8
:100B00002B23002F01DA7F422D230A21021EA0F1A0
:100B1000010000DC5FB197FBF1FC97FBF1F201FBF8
:100B20001C7C17460CF1300C08F801CDEEE7A8F15B
:100B3000010003702188090501D5452100E06521E8
:100B4000A0F1010800F8011C09980FA9A1EB080702
:100B5000FF1D00B10120411901EBEA70A169384481
:100B6000081A401EA0612078C00602D42046FFF774
:100B7000B9FB099828B1D4E901219047206A401CAB
:100B800020622078C00622D52046FFF7ABFB1EE08E
:100B9000002E04DBB34502DD01A8805D00E03020BB
:100BA000D4E901219047206A401C2062761CAAF1FA
:100BB00001005FEA000A0AD100F048F8C068016845
:100BC000405CD4E901219047206A401C2062281E25
:100BD000A5F10105DCDC07E0D4E9012118F8010BDF
:100BE0009047206A401C2062381EA7F10107F3DC01
:100BF0002046FFF78DFB032011B043E610B5436993
:100C000013B1AFF3008001E0FFF793FB012010BDAB
:100C1000127800F124010A7000224A700122EDE7E7
:100C200011684FF0FF32E9E7074B70B50D467B4482
:100C300000F05FF80446284600F01CF910B14FF0B0
:100C4000FF3070BD204670BD5F2400000048704733
:100C50000C24002000487047EC23002030B5B0F190
:100C60000A024FEA900E71F100034EEA817EB0EB6A
:100C70000E0061EB91014FEA101E4EEA017E10EB6F
:100C80000E0041EB11114FEA102E4EEA016E10EBEF
:100C90000E0041EB11214FEA104E4EEA014E10EBCF
:100CA0000E0041EB1141401841F100014FEAD00024
:100CB00040EA41704FEAD10110EB80054FEA810410
:100CC00044EA907444EB01046D1944EB0404521B94
:100CD000A3414FF0000348BF0A3200D530BD401C8D
:100CE00041F1000130BD000001694A1C0261087831
:100CF000704700B58FB0CDE901310021059105495C
:100D00007944CDE9031011466846FFF777FB0FB031
:100D100000BD0000E5FFFFFF2DE9F0411F4604463E
:100D200003260168072A01F4006004DB08B116A558
:100D300005E016A503E008B115A500E015A521F012
:100D400010002060A069C01EA0610FB1401EA0610C
:100D50002046FFF7C7FA4FB1D4E901213846904742
:100D6000206A401C2062C01C206206E0206AFAE76C
:100D7000D4E9012115F8010B9047761EF8D22046E0
:100D8000FFF7C6FABDE8F0814E414E006E616E007D
:100D9000494E4600696E66002DE9F04781461646C9
:100DA0008AB0334878440DC88DE80D003048784447
:100DB000801C03AC0DC884E80D0041F69B3008444C
:100DC000372190FBF1F290FBF1F5A5F1800501FBD5
:100DD00012041B3C02D56442012000E00020DFF831
:100DE00090A080460027FA44AAF1BE0A0DE0E00771
:100DF00009D03246684607EB47010AEB810100F053
:100E000032FB8DE8070064107F1C002CEFD1184FD7
:100E10007F44AC3F18E0E80714D007EB04100DF155
:100E2000180A90E80E008AE80E00C068F04201D16E
:100E300098190890324606A903A800F014FB03ABEA
:100E400083E807006D10641C002DE4D1324669462A
:100E5000B8F1000F03A802D000F0F1FA01E000F0B1
:100E600002FBC9E90001C9F808200AB0BDE8F08713
:100E700080680000007B00F08000704700487047E9
:100E8000EC2300207546FFF7F9FFAE4605006946E2
:100E9000534620F00700854618B020B5FFF704FA46
:100EA000BDE820404FF000064FF000074FF000086B
:100EB0004FF0000B21F00701AC46ACE8C009ACE8EC
:100EC000C009ACE8C009ACE8C0098D4670470446CB
:100ED000AFF300802046FFF786F900004FF0013C99
:100EE00050F8042B51F8043B9A4221D1A2EB0C0399
:100EF000934313EACC1317D150F8042B51F8043B59
:100F00009A4215D1A2EB0C03934313EACC130BD1F5
:100F100050F8042B51F8043B9A4209D1A2EB0C0380
:100F2000934313EACC13DBD04FF00000704700BFAF
:100F3000D01A01BAB1FA81F101F0180122FA01F0D8
:100F4000CB40C1F12001DBB2C0B2C01A2CFA01F3D0
:100F5000D11A914311EAC311E6D170475FEA400C00
:100F600008BF91F0000F4FEA8C234FEAC12243EAF9
:100F700051514FEA1C5018BF00F5F0404FEA3000C5
:100F800018BF41F000415FEA6C5C00F02980BCF1C1
:100F9000FF3F08BF40F080407047130C06BF1204AB
:100FA0004FF0100C4FF0000C130E04BF12020CF1A6
:100FB000080C130F04BF12010CF1040C930F04BFB3
:100FC00092000CF1020CD30F04BF52000CF1010C83
:100FD00011464FF00002A0F11F00A0EB0C0070477B
:100FE00011F0004F08BF704731F000413FF4D5AF1A
:100FF0000B0C06BF09044FF0100C4FF0000C0B0E49
:1010000004BF09020CF1080C0B0F04BF09010CF11D
:10101000040C8B0F04BF89000CF1020CCB0F04BF32
:1010200049000CF1010CCCF12003A0EB0C0022FADA
:1010300003F302FA0CF241EA030100F101007047E8
:1010400020F07F4C80EA030023F07F47ACEB0703DE
:1010500003F57C5300F0004003F1FF032DE98049C4
:101060004FEA154B09B44FEA144325EA0B4E24EA24
:1010700003480FF2042606EB132749083E785FEA7F
:10108000320203FB0667C7F5000707FB06F64FEAC7
:1010900054374FEAD64606F1020607FB066CCCF140
:1010A000005C4FEA1C472CEA074C07FB06F40CFBDC
:1010B00006F504EB15464FEA961634BF00204FF0B4
:1010C00000404FEAD13706FB07FC4FEA1C4C0CFBF3
:1010D0000BF7D21B03FB0CF761EB07010CFB0EF7C0
:1010E000B0EB074072EB17420CFB08F734BFA2EBE2
:1010F0000742B2EB074261EB17414FEA0C444FEA5B
:10110000910706FB07FC4FEA1C4C0CFB0BF7B0EBFE
:10111000C74072EB573203FB0CF734BFA2EBC74258
:10112000B2EBC74261EB57310CFB0EF7B0EBC700D7
:1011300072EB57720CFB08F734BFA2EBC702B2EB9D
:10114000C70261EB5771039F4FEA816141EA921137
:1011500004EBCC044FEAD1374FEA826206FB07FC6E
:1011600042EA90124FEA80604FEA1C4C0CFB0BF7EE
:10117000D21B03FB0CF761EB07010CFB0EF7B0EB86
:10118000074072EB17420CFB08F734BFA2EB074293
:10119000B2EB074261EB17414FEA8C554FEA9107DA
:1011A00004EB9C2406FB07FC4FEA1C4C0CFB0BF7E2
:1011B000B0EBC74072EB573203FB0CF734BFA2EB26
:1011C000C742B2EBC74261EB57310CFB0EF7B0EBF5
:1011D000C70072EB57720CFB08F734BFA2EBC702D3
:1011E000B2EBC70261EB577115EB4C254FEA8161F9
:1011F00041EA92114FEA82624FEAD13742EA9012F5
:1012000006FB07FC44F100044FEA80604FEA1C4CE7
:101210000CFB0BF7D21B03FB0CF761EB07010CFB7C
:101220000EF7B0EB074072EB17420CFB08F734BF28
:10123000A2EB0742B2EB074261EB174115EB1C151D
:101240004FEA813141EA92414FEA823242EA9042CA
:101250004FEA80304FEA0C7644F1000448EA034339
:101260004EEA0B484FF0000EB2EB080C71EB03078F
:1012700024BF624639464EEB0E0E4FF0000B0018AD
:10128000524149414BEB0B0BB2EB080C71EB0307DE
:101290007BF1000B24BF624639464EEB0E0E4FF039
:1012A000000B0018524149414BEB0B0BB2EB080C01
:1012B00071EB03077BF1000B24BF624639464EEB0E
:1012C0000E0E51EA020718BF46F0010616EB0E7625
:1012D00055F1000254F1000103D5BDE88901BDE8D4
:1012E0000088BDE88901BDE80048B619524141EBCC
:1012F0000101A3F10103704780807F7E7D7C7B7AB2
:101300007978777676757473727171706F6E6E6DB1
:101310006C6C6B6A6A696868676666656464636357
:1013200062616160605F5F5E5E5D5D5C5C5B5B5ADD
:101330005A5959585857575656555555545453534A
:1013400052525251515050504F4F4F4E4E4D4D4DA5
:101350004C4C4C4B4B4B4A4A4A49494948484847F0
:10136000474747464646454545444444444343432E
:101370004342424242414141002B26D4770021D0D2
:101380001CB54FEA370703B44FF010004FF01001BF
:101390004FF000000FBCBDE810400BF1010BBBF19A
:1013A000010F08BF5FEA170722BF12F1010211F116
:1013B00001014FF0004143F1000300F0004043EA17
:1013C00000007047F9D35708DAE746EA064613F1FA
:1013D000400F4FEA16461FDD13F1200FDFBF164303
:1013E0000A46002120335B42C8D0C3F1200746EAF9
:1013F000064602FA07F74FEA164646EA0706C3F121
:10140000200722FA03F201FA07F721FA03F14FF05D
:10141000000342EA0702B1E746EA020646EA064648
:101420004FEA164646EA0106BCBF46EA0646360CB7
:101430004FF000034FF000024FF000019EE72DE94E
:10144000C048934630B491E8380007C831EA400CF0
:1014500048BF34EA430C03D5FFF7F2FDFFF78CFFDA
:10146000F0BCBDE800882DE9C048934630B491E84F
:10147000380007C810F0804F08BF13F0804F03D129
:1014800000F005F8FFF778FFF0BCBDE8008820F019
:101490007F4780EA030023F07F4C07EB0C03A3F5A2
:1014A0007C5300F00040A3F1FE0392F0000F00F027
:1014B000B38095F0000F00F077802DE901494FEAE5
:1014C00011404FEA144621EA004800FB06FC24EADA
:1014D000064708FB06F607FB08F800FB07F718EBC2
:1014E00006484CEB164C4FEA124B18EB07484FEAF4
:1014F00015464CEB174022EA0B4E0BFB06FC25EA87
:1015000006470EFB06F607FB0EFE0BFB07F71EEB6E
:10151000064E4CEB164C4FF000061EEB074E4CEB04
:10152000174B18EB0B0840F1000018EB0E0B58EBB3
:10153000000840F100008F1A4FF000013CBFC94382
:10154000661B14BFB5EB040C00213CBFC943F61B5E
:101550004FEA17444EEA8E0E27EA04454FEA1C472D
:1015600004FB07622CEA074C05FB07F70CFB05F6AA
:1015700004FB0CFC16EB074642EB174216EB0C463D
:1015800042EB1C421BEB060658EB0202414146EAC5
:101590009E0601D5BDE80189B619524141EB010112
:1015A000A3F10103BDE801894FEA14454FEA114751
:1015B00024EA054621EA074C05FB07F406FB07F77A
:1015C0000CFB06F105FB0CFC11EB074144EB174447
:1015D0004FEA124711EB0C4144EB1C4422EA074C42
:1015E00005FB07F206FB07F70CFB06F605FB0CFCF8
:1015F00016EB074642EB174216EB0C4642EB1C4536
:101600006A1854F1000148BF7047B619524141EBC6
:101610000101A3F10103704795F0000F37D04FEAA5
:1016200011424FEA144721EA024624EA074C02FB22
:1016300007F106FB07F70CFB06F402FB0CFC14EBAE
:10164000074441EB17414FEA154714EB0C4441EBBB
:101650001C4125EA074C02FB07F506FB07F70CFBCC
:1016600006F602FB0CFC16EB074645EB174516EB9E
:101670000C4645EB1C42121951F1000148BF70475E
:10168000B619524141EB0101A3F1010370474FEA42
:1016900014454FEA114724EA054621EA074C05FBA9
:1016A00007F106FB07F70CFB06F24FF0000605FBFF
:1016B0000CFC12EB074241EB174112EB0C4251EBD1
:1016C0001C4148BF7047921841EB0101A3F101038F
:1016D00070472DE9F0410246002500260020002336
:1016E0000024002791F803C00CF00F0591F803C007
:1016F0000CF0100CBCF1000F03D091F802C04CEAC2
:10170000050591F800C0BCF1000F31D0146800202D
:101710002BE04FF0010C0CFA00F3B1F800C00CEA1A
:1017200003069E4220D183004FF00F0C0CFA03F702
:10173000BC4305FA03FC4CEA040491F803C0BCF175
:10174000280F06D14FF0010C0CFA00FCC2F814C0AF
:101750000AE091F803C0BCF1480F05D14FF0010C2D
:101760000CFA00FCC2F810C0401C0828D1D3146049
:10177000B1F800C0BCF1FF0F34DD546800202EE04A
:1017800000F1080C4FF0010808FA0CF3B1F800C0A2
:101790000CEA03069E4221D183004FF00F0C0CFA95
:1017A00003F7BC4305FA03FC4CEA040491F803C0B8
:1017B000BCF1280F05D100F1080C08FA0CF8C2F8AA
:1017C000148091F803C0BCF1480F07D100F1080C58
:1017D0004FF0010808FA0CF8C2F81080401C0828E5
:1017E000CED35460BDE8F08141617047016170471C
:1017F00021B1028842F48062028004E002884FF640
:10180000FF331A400280704721B1028842F0010282
:10181000028004E002884FF6FE731A40028070478F
:1018200010B504460B48844209D10121480500F057
:101830006DFA00214FF4001000F068FA08E0012171
:10184000880500F063FA00214FF4800000F05EFA92
:1018500010BD00000054004021B1028842F48072A3
:10186000028004E002884FF6FF631A40028070474E
:1018700021B1028842F40072028004E002884FF62F
:10188000FF531A40028070470CB502460020002327
:101890000193009300920B0F019321F07F41019B74
:1018A0001BB1009B1433009303E0090C009B183319
:1018B0000093009B1B680B400BB1012000E000204F
:1018C0000CBD00002DE9F04385B004460D4600260E
:1018D000B1460427DFF8CC80A6884FF6C0700640DA
:1018E000684600F043FADDF808802F48B8FBF0F0B6
:1018F0001FFA80F946EA0906A68020884FF6FE7195
:101900000840208000262949286888420CD8286889
:101910004000B8FBF0F087B2042F00DA04273E4302
:1019200009F10100208427E0E8884BF6FF71884226
:1019300006D1286800EB4000B8FBF0F087B209E060
:10194000286800EBC00101EB0010B8FBF0F087B293
:1019500047F48047C7F30B0008B947F0010747F485
:10196000004006434FF4967009FB00F04FF47A7183
:1019700090FBF1F0401C2084A683208840F00100F9
:10198000208026884FF6F5300640A88869890843EC
:1019900006432680A88929890843208105B0BDE82F
:1019A000F083000000127A0040420F00A086010080
:1019B0000146088AC0B2704712B141F0010102E04D
:1019C0004FF6FE7319400182704701827047000094
:1019D0007CB50DA505222946302000F0F9F8052236
:1019E0006946102000F058F8002409E015F8011BA2
:1019F0001DF80400814201D001207CBD601CC4B2EE
:101A0000052CF3DB0020F8E76E524632340000006C
:101A100010B504462146272000F0FAF810BD10B595
:101A2000FF21E12000F0F4F810BD10B503F0A2F999
:101A3000FFF7CEFF10BD000070B504460D46012132
:101A40000948FFF7D1FE284600F01BFE052221467B
:101A50002A2000F0BDF80F21202000F0D9F8012144
:101A60000148FFF7C3FE70BD000C014070B504468D
:101A700010210848FFF7B8FE204603F0E1F9FF20E7
:101A800003F0DEF9054610210248FFF7AFFE2846B5
:101A900070BD0000000801402DE9F04106460C46EB
:101AA000154610210C48FFF79FFE304603F0C8F999
:101AB000074604E0FF2003F0C3F904F8010B2800F7
:101AC000A5F10101CDB2F5D110210348FFF78EFE3B
:101AD0003846BDE8F08100000008014070B50446BA
:101AE000002601210C48FFF77FFE0720FFF7BEFF0D
:101AF000054605F0400040B1102221466120FFF765
:101B0000CBFF01264020FFF783FF01210248FFF7AA
:101B10006DFE304670BD0000000C014070B50546FA
:101B20000C4601210948FFF75FFE204600F0A9FDA1
:101B3000052221462A2000F04BF80E21202000F03B
:101B400067F801210148FFF751FE70BD000C01400C
:101B50002DE9F04107460C46002501211B48FFF7FF
:101B600043FE102C01DD102000E0204604462246F2
:101B70003946A02000F02CF801211448FFF736FE6A
:101B8000002600E0761C42F210708642FAD3012152
:101B90000E48FFF729FE0720FFF768FF054605F00E
:101BA000200018B12020FFF733FF07E005F01000F8
:101BB00020B1FFF734FF1020FFF72AFF012103486F
:101BC000FFF714FE2846BDE8F0810000000C01403C
:101BD0002DE9F04106460C46154610210B48FFF74B
:101BE00003FE304603F02CF9074603E014F8010B1E
:101BF00003F026F92800A5F10101CDB2F6D110219C
:101C00000248FFF7F3FD3846BDE8F08100080140C7
:101C100070B504460D4610211248FFF7E5FD202C53
:101C20000ADA04F01F0141F0200003F009F906462A
:101C3000284603F005F90EE0204603F001F90646B8
:101C4000E12C08D0E22C06D0E32C04D0FF2C02D0EB
:101C5000284603F0F5F810210248FFF7C7FD30468B
:101C600070BD00000008014070B5002100230F2264
:101C7000C47804B3154C246804F4E064C4F5E0644B
:101C8000210AC1F10403CA40447804FA03F18478BC
:101C90001440214309010E4C0678A155047804F044
:101CA0001F050124AC4005786D11AD0005F1E0255C
:101CB000C5F8004109E0047804F01F050124AC4098
:101CC000044D0678761145F8264070BD0CED00E015
:101CD00000E400E080E100E002490143024A1160B3
:101CE000704700000000FA050CED00E029B1064A3B
:101CF000D2690243044BDA6104E0034AD2698243A9
:101D0000014BDA61704700000010024029B1064A19
:101D100012690243044B1A6104E0034A12698243C8
:101D2000014B1A61704700000010024029B1064AB9
:101D300092690243044B9A6104E0034A9269824328
:101D4000014B9A61704700000010024029B1064A19
:101D5000D2680243044BDA6004E0034AD26882434B
:101D6000014BDA60704700000010024030B50021DE
:101D70000022002400232D4D6D6805F00C0121B1D7
:101D8000042905D0082923D105E0294D056022E06A
:101D9000274D05601FE0254D6D6805F47012234D39
:101DA0006D6805F48034022505EB92421CB9214D83
:101DB000554305600BE01D4D6D6805F400351DB100
:101DC0001C4D5543056002E0194D5543056002E086
:101DD000174D056000BF00BF144D6D6805F0F001A0
:101DE0000909154D6B5C0568DD4045600F4D6D6858
:101DF00005F4E061090A104D6B5C4568DD408560C3
:101E00000A4D6D6805F46051C90A0B4D6B5C45685D
:101E1000DD40C560054D6D6805F44041890B074DF7
:101E20006B5CC568B5FBF3F5056130BD0010024081
:101E300000127A0000093D0010010020200100205E
:101E400021B1028842F04002028004E002884FF68D
:101E5000BF731A400280704710B50446114884428F
:101E600008D101218014FFF771FF0021A014FFF7B2
:101E70006DFF16E00C48844208D101210014FFF7E1
:101E800045FF00212014FFF741FF0AE00748844284
:101E900007D10121C013FFF739FF0021E013FFF73D
:101EA00035FF10BD0030014000380040003C0040CC
:101EB0000246002013890B400BB1012000E00020F6
:101EC00070470146888970478181704710B50022AC
:101ED000028802F441520B884C8823438C882343A8
:101EE000CC8823430C8923434C8923438C89234387
:101EF000CC8923431A430280838B4FF2FF74234023
:101F000083830B8A038210BD10B500F001F810BD69
:101F10000CB50020019000903348006840F48030F8
:101F20003149086000BF3048006800F4003000907C
:101F30000198401C0190009818B90198B0F5A06F65
:101F4000F1D12948006800F4003010B10120009060
:101F500001E0002000900098012843D12348006848
:101F600040F01000214908600846006820F0070092
:101F700008600846006840F0020008601A4840689F
:101F8000194948600846406848600846406840F47F
:101F9000806048600846406820F47C10486008462D
:101FA000406840F4E81048600846006840F08070DF
:101FB000086000BF0C48006800F000700028F9D0ED
:101FC0000948406820F00300074948600846406817
:101FD00040F00200486000BF0348406800F00C0079
:101FE0000828F9D10CBD000000100240002002407A
:101FF00010B500BF502080F31188BFF34F8FBFF39F
:102000006F8F00BF04F0F4FB18B14FF0805004490B
:10201000086000BF002080F3118800BF10BD0000E1
:1020200004ED00E010B51348006840F001001149CC
:10203000086008464068104908400E494860084654
:1020400000680E4908400B4908600846006820F403
:10205000802008600846406820F4FE0048604FF485
:102060001F008860FFF750FF4FF0006004490860D0
:1020700010BD0000001002400000FFF8FFFFF6FE58
:1020800008ED00E021B1028842F08002028004E005
:1020900002884FF67F731A400280704721B1028890
:1020A00042F00102028004E002884FF6FE731A40FB
:1020B0000280704770B5002400220023058C4FF683
:1020C000FE7635400584028C8388048B4FF68F752D
:1020D0002C40B51E2C400D882C43751E2A400D89BE
:1020E0002A434D882A43144DA8420BD0134DA842D1
:1020F00008D0134DA84205D0124DA84202D0124D6F
:10210000A84213D14FF6F7752A404D892A434FF65E
:10211000FB752A408D882A434FF6FF652B404FF60A
:10212000FF552B408D892B43CD892B43838004831E
:10213000CD888586028470BD002C014000340140AA
:102140000040014000440140004801400A4600218F
:10215000018B4FF6F773194011430183704700005C
:1021600070B5002400220023058C4FF6EF76354031
:102170000584028C8388048B48F6FF752C404FF64B
:10218000FF452C400D884FF6FF7606EA05252C43C7
:102190004FF6DF752A400D8906EA05152A434D885A
:1021A00006EA05152A43154DA84202D0144DA8424F
:1021B0001DD14FF67F752A404D894FF6FF7606EA0E
:1021C00005152A434FF6BF752A408D8806EA051586
:1021D0002A434FF6FF352B404FF2FF752B408D8978
:1021E00006EA85052B43CD8906EA85052B438380C6
:1021F0000483CD880587028470BD0000002C014057
:10220000003401400A460021018B4FF2FF73194050
:102210004FF6FF7303EA022319430183704700005E
:1022200070B5002400220023058C4FF6FF66354070
:102230000584028C8388848B4FF68F752C404FF673
:10224000FC752C400D882C434FF6FF552A400D8914
:102250004FF6FF7606EA05252A434D8806EA05254E
:102260002A43154DA84202D0144DA8421DD14FF269
:10227000FF752A404D894FF6FF7606EA05252A4369
:102280004FF6FF352A408D8806EA05252A434EF68B
:10229000FF752B404DF6FF752B408D8906EA05151D
:1022A0002B43CD8906EA05152B4383808483CD8893
:1022B0008587028470BD0000002C0140003401407D
:1022C0000A460021818B4FF6F77319401143818331
:1022D0007047000070B5002200230024058C4EF6E4
:1022E000FF7635400584038C8488828B48F6FF7521
:1022F0002A404FF6FF452A400D884FF6FF7606EA42
:1023000005252A434DF6FF752B400D8906EA053554
:102310002B434D8806EA05352B430B4DA84202D0CE
:102320000A4DA84208D14BF6FF752C408D894FF617
:10233000FF7606EA85152C4384808283CD88A0F839
:102340004050038470BD0000002C01400034014067
:102350000A460021818B4FF2FF7319404FF6FF733D
:1023600003EA0223194381837047002101804180E1
:102370008180C180018141818181C18170478186D5
:1023800070470187704781877047A0F840107047F9
:10239000002202881D4B98420ED01D4B98420BD054
:1023A000B0F1804F08D01B4B984205D01A4B984291
:1023B00002D01A4B984204D14FF68F731A404B88C3
:1023C0001A43174B984207D0164B984204D04FF649
:1023D000FF431A40CB881A4302808B8883850B8881
:1023E00003850A4B98420BD0094B984208D00E4BFC
:1023F000984205D00D4B984202D00D4B984201D126
:102400000B7A03860123838270470000002C014071
:10241000003401400004004000080040000C00406F
:102420000010004000140040004001400044014002
:10243000004801404FF6FF71818000210180C1807A
:10244000418001727047000038B540F225511448B0
:1024500000F052F8012821D100BF5021EFF3118084
:1024600081F31188BFF34F8FBFF36F8F00BF044616
:102470000B4800F0FDF8C0B2009000231A466946F0
:102480000848006804F0ACF840F22551044800F018
:102490000BF8204680F3118800BF00BF38BD000054
:1024A000003801408800002010B50022002340F6CB
:1024B0006A14A14200D100BF0A1201249440A3B2C1
:1024C000DC43048010BD21B1828942F40052828134
:1024D00004E082894DF6FF731A40828170470246FC
:1024E0000020B1F5007F00D100BF13880B400BB175
:1024F000012000E00020704770B502460024002350
:102500000025002040F66A16B14200D100BFC1F399
:10251000421501F01F03012606FA03F3012D02D133
:102520009689334006E0022D02D1168A334001E03D
:10253000968A33400C12012606FA04F416883440B9
:1025400013B10CB1012000E0002070BDF0B50346CE
:10255000002400260025002040F66A17B94200D169
:1025600000BF1846C1F3421401F01F06012707FA05
:1025700006F5012C01D10C3004E0022C01D1103001
:1025800000E014301AB107682F43076002E00768C3
:10259000AF430760F0BD00002DE9F04786B0054667
:1025A0000E460024A24600BFA1460027B08900B114
:1025B00000BF2F462C8A4CF6FF700440F08804437D
:1025C0002C82AC894EF6F3100440B0883189084360
:1025D000718908430443AC81AC8A4FF6FF40044044
:1025E000B0890443AC8201A8FFF7C0FB1F488742B3
:1025F00002D1DDF810A001E0DDF80CA0A88900F4FC
:10260000004040B10AEBCA0000EB0A1031684900F3
:10261000B0FBF1F807E00AEBCA0000EB0A103168E2
:102620008900B0FBF1F86420B8FBF0F00401200948
:10263000642101FB1089A88900F4004040B13220D8
:1026400000EBC900B0FBF1F000F00700044308E024
:10265000322000EB09106421B0FBF1F000F00F0014
:1026600004432C8106B0BDE8F0870000003801402B
:1026700001468888C0F308007047C1F308028280D1
:10268000704710B50446052221463020FFF7A0FA16
:1026900010213120FFF7BCFA01212120FFF7B8FA01
:1026A00001212220FFF7B4FA19212520FFF7B0FA03
:1026B00025212620FFF7ACFA88212420FFF7A8FA6D
:1026C00010BD490050EAC12018BF04204A0D18BFB0
:1026D00040F0010040F2FF72B2EB515F08BF40F0E2
:1026E0000200012808BF052070474100080218BFFA
:1026F00004200A0E18BF40F001004FF07F4232EA7A
:10270000010108BF40F00200012808BF0520704702
:10271000012104F004BF04F0F7BA0021084604F0D8
:1027200067BB6FF05E01080704F0F9BE30380A2875
:1027300001D2012070470020704700BFFEE7000073
:102740002DE9F04104464FF00E4000EB4400B0F19B
:10275000506F204655D84FF0FC41B1EB440F1CD2CE
:1027600024F000404FF07E5104F09DFD4FF0FF310A
:1027700004F0D5FE054602F07FFB14F0004F1DBFAC
:102780002F4F304E80F000402F4F08BF2F4E4FF09C
:10279000404104F08BFC044605E000273E4601461C
:1027A00004F084FC05462A49284604F07FFC2949A8
:1027B00004F0AAFA294604F079FC274904F0A4FAA7
:1027C000294604F073FC254904F09EFA294604F0DA
:1027D0006DFC234904F098FA80462946204604F00F
:1027E00065FC414604F062FC05463146204604F093
:1027F0008BFA294604F088FA3946BDE8F04104F026
:1028000083BA4FF0E441B1EB440F08D9FFF76DFFF5
:10281000042808BFFFF785FF2046BDE8F0814FF090
:102820007F41B1EB440F03D2BDE8F041FFF770BF29
:102830000120FDF777FFBDE8F041FFF76EBF000014
:102840000000C9BF22AAFDB90000C93F22AAFD3974
:1028500024FE1C3DC78AD83C1E67383D1B93993D1A
:10286000AFAA2A3E2DE9F0474FF0684202EB400341
:102870000C460546B3F1654F3CBF02EB4102B2F195
:10288000654F7CD2C0F3C753C1F3C7529A1A1B2AB3
:1028900006DD10F0004F14BF76487748BDE8F0879A
:1028A00012F11A0F17DA11F0004F06D010F0004F96
:1028B0000CBF72487248BDE8F0872146284604F0F4
:1028C00097FA0446FFF711FF042808BFFFF729FF16
:1028D0002046BDE8F0874200B2EB410F25D910F049
:1028E000004F19BF674F684E684F694E224685F00A
:1028F000004415460A4680F0004110460A1A52006C
:10290000B2F1807F40D248406249DFF88CA110F0DC
:10291000004F18D04FF03F48384604F057FD0746A7
:102920005146304604F052FD17E011F0004F04BF4D
:1029300000263746E2D010F0004F19BF574F584ECF
:10294000584F594EDAE74FF07C58384604F0DCF91E
:1029500007465146304604F0D7F906464146284618
:1029600004F0A4FB214604F0CFF9824621464046FC
:1029700004F09CFB294604F096FC514600E037E049
:1029800004F036FA044604E02146284604F030FA02
:102990000446014604F08AFB8046444904F086FB65
:1029A000434904F0B1F9414604F080FB414904F089
:1029B000ABF9414604F07AFB3F4904F0A5F94146E2
:1029C00004F074FB3D4904F09FF90546414620465A
:1029D00004F06CFB294604F069FB314604F094F9DD
:1029E000214604F091F93946BDE8F04704F08CB96E
:1029F0004FF07F42B2EB400F28BFB2EB410F03D242
:102A0000BDE8F047FFF787BE40EA01035B0008BF5F
:102A100044F0FF410AD0B2EB400F08BFB2EB410FC8
:102A200006D125F0804024F0804105460C4629E778
:102A3000B2EB400F12BF5FEA410245F0FF4004F0E5
:102A400000413FF41FAF4A0092EA40033FF51AAF3E
:102A5000002AACBF4FF09F464FF03E56314604F07F
:102A600025FB05463146204604F020FB0446284657
:102A7000214607E7DB0FC9BFDB0FC93FDB0F49402A
:102A8000DB0F49C00000C9BF22AAFDB90000C93F41
:102A900022AAFD390060ED3EC30ACE37000049C0CE
:102AA00022AA7DBA0000494022AA7D3A2DAD65BD1B
:102AB0008FB8D53D0FB511BE61C84C3EA8AAAABEBD
:102AC0001CB5224822494FF08043224ACDE900102C
:102AD0002149224801F018FB1C481D494FF0804352
:102AE0001C4ACDE900101C491D4801F00DFB174898
:102AF00017494FF07E531B4ACDE900101A491B4875
:102B000001F002FB1A481B49086000201A490860BE
:102B10001A4908601A4908604FF47A701949088008
:102B200000201949087019490870194908704FF4B4
:102B30007A701849088048808880C88003461A4601
:102B40001946184600F028F81CBD00000000964306
:102B5000000070420000A0400000F0414801002049
:102B600064010020000040400000A04180010020DE
:102B700000002041380000203C00002040000020E0
:102B800044000020480000204A0000204B000020A4
:102B90004C0000204E0000202DE9F04104460F4675
:102BA00015461E462146012000F066FD39460220EA
:102BB00000F062FD2946032000F05EFD314604204E
:102BC00000F05AFDBDE8F0812DE9FF4F8FB01746A8
:102BD000DDE92148FE48007830B1012809D00228FB
:102BE0001FD0032873D145E014B10120F8490870C3
:102BF0006DE01CB90020F649087011E0B8F1000F33
:102C00000ED0F448007858B90220F1490870F24813
:102C100001F086FAF14801F083FAF14801F080FAF8
:102C200055E0ACB90320EA490870EE48008804F08A
:102C3000F5F9ED4908600020EC490860E64801F02C
:102C40006FFAE64801F06CFAE54801F069FA10E025
:102C5000239870B1DF48007858B90120DC4908702A
:102C6000DD4801F05DFADD4801F05AFADC4801F078
:102C700057FA2CE064B10120D5490870D64801F01C
:102C80004FFAD64801F04CFAD54801F049FA1DE058
:102C9000D749249804F00AFA0490D44801680498AB
:102CA00004F032F8D1490860D249D048006804F0F5
:102CB000C9FA0BD20020C6490870C74801F030FAA3
:102CC000C64801F02DFAC64801F02AFA00BF00BF3D
:102CD000C04880F80080BE480078D0B94FF47A70C0
:102CE000C549088048808880C88003461A4619462E
:102CF0001846FFF751FF0020C0490860C04908602E
:102D0000C04908604FF47A70B649088013B0BDE836
:102D1000F08FAF480078012818D140F27E40B149C9
:102D200008800020B5490860B5490860B5490860C9
:102D300040F27E40B049088048808880C8800346C1
:102D40001A4619461846FFF727FFDFE7A048007824
:102D5000032839D10020A9490860A9490860A94978
:102D60000860A949A148006804F06CF902D29E48A5
:102D7000066823E0A4499D48006804F027FBA349A6
:102D8000039004F035F804904FF07E51049804F05D
:102D900059FA02D24FF07E5004909D499248006843
:102DA00004F014FB0290049904F080F903908E481B
:102DB0000168039804F077FA064600BF304604F035
:102DC000F5F8884908802BE01D9804F0D3F87F219E
:102DD000039001F0B9FF8F49049004F067F9874927
:102DE00008601E9804F0C6F87F21039001F0ACFF44
:102DF0008849049004F05AF9814908601F9804F04A
:102E0000B9F87F21039001F09FFF8349049004F0FB
:102E10004DF97C490860209800F0C2FF7149088094
:102E2000764801680F9804F03EFA0E9074481099A5
:102E3000006804F0CBFA0D9078480E99006804F011
:102E400035F9814675480D99006804F02FF90C900A
:102E50007149484604F0F6F902D2DFF8BC9106E069
:102E60006F49484604F0EEF801D2DFF8B4916A49A0
:102E70000C9804F0E7F902D267480C9006E0684924
:102E80000C9804F0DFF801D265480C9039464846AA
:102E900004F09CFA0B9012990C9804F097FA0A909F
:102EA00058481C99006804F091FA09904A48249AFD
:102EB0000B9901F039F908904848249A0A9901F0D1
:102EC00033F907904648249A099901F02DF90546EF
:102ED0004448008840F24C4188420CDA00200890B7
:102EE000079000253C4801F01BF93C4801F018F917
:102EF0003B4801F015F93B48008804F08FF806467E
:102F00003046089903F000FF2946049004F05EFA69
:102F100006903046089904F059FA2946049004F0C6
:102F200055FA82463046079903F0EEFE2946049092
:102F300003F0EAFE83463046079904F047FA294633
:102F4000049003F0E1FE05902949069804F07AF810
:102F500001D2274806903349069804F073F901D24C
:102F6000304806902249504604F06CF801D2DFF850
:102F700080A02C49504604F065F901D2DFF8A4A0E6
:102F80001B49584604F05EF801D2DFF864B02549C9
:102F9000584604F057F901D2DFF888B01449059873
:102FA00004F050F801D2124805901E49059804F02B
:102FB00049F901D21B480590069803F0F7FF0E4926
:102FC0000880504603F0F2FF0B49488058462BE03A
:102FD0004C00002060000020480100206401002017
:102FE0008001002048000020580000205C000020E4
:102FF00000007A4400803B454E0000203C00002049
:1030000040000020440000200000FA4300401C451E
:1030100000C08F446666263F0000C0403800002094
:103020000000C0C000C00F4503F0C0FF10498880F9
:10303000059803F0BBFF0E49C880059803F0B6FF62
:1030400080B20490584603F0B1FF80B2039050461E
:1030500003F0ACFF80B20290069803F0A7FF80B2A5
:10306000019002A90EC9FFF797FD00BF4EE60000D0
:103070004E00002008B500EBC0014900009100E0BF
:1030800000BF00994A1E00920029F9D108BD000036
:1030900038B504460D460748006848B1E0B20090D4
:1030A00000231A4669460348006803F0C5F900BFCB
:1030B000204638BD8C00002010B502460B4600208B
:1030C000002104E0545C0444E0B24C1CE1B299429B
:1030D000F8DB10BD10B504462046FEF7FFFC10BD1E
:1030E00010B504460120207083206070A078A07085
:1030F0000B20E0700E48007820710D484078607118
:103100000B488078A0710A48C078E07108480079BF
:1031100020720F212046FFF7CFFFE07305490846D4
:10312000FEF7FCFC10212046FEF712FD10BD00004A
:10313000280000202D00002038B52848FEF770FB3D
:10314000C020ADF8000010208DF8030003208DF89A
:10315000020069462248FEF7BCFAC0212048FEF76B
:1031600045FB0A20FFF786FF00240FE040211C48A2
:10317000FEF73AFB0A20FFF77DFF40211848FEF7D3
:1031800035FB0A20FFF776FF601CC4B2092CEDDB8B
:1031900040211348FEF728FB0A20FFF76BFF802130
:1031A0000F48FEF721FB0A20FFF764FF40210C487F
:1031B000FEF71CFB0A20FFF75DFF80210848FEF7A1
:1031C00015FB0A20FFF756FF1C208DF80300694607
:1031D0000348FEF77EFA00F005F838BD00540040C1
:1031E000000C014000B585B001210820FEF79EFDCE
:1031F00001214805FEF77AFDC020ADF810001C2023
:103200008DF8130003208DF8120004A91148FEF771
:1032100060FA1148FEF704FB0020ADF804004BF6FD
:10322000FF70ADF806000020ADF808004FF4806094
:10323000ADF80A000001ADF80C000848009069469E
:103240000548FEF73FFB01210348FEF7DDFA05B014
:1032500000BD0000000C014000540040801A060030
:1032600010B50C480068401C0A4908600A4800680C
:10327000401C0949086007480068032809D3FFF784
:103280005BFF06480068401C0449086000200149B3
:10329000086010BD7C000020840000208000002019
:1032A0002DE9F0470746894616461D464FF00008AF
:1032B00000BF6E48006830B100235A1E19466B48A3
:1032C000006802F08BFF00BF05B9B7E00121684834
:1032D000FEF7C2FA674C05E0601E040002D14FF011
:1032E0000108ABE064496248FEF7CEFA0028F3D04B
:1032F0007806010E00225E48FEF75EFB5D4C05E09D
:10330000601E040002D14FF0010897E05A49491CA1
:103310005748FEF7B9FA0028F2D05548183000880F
:1033200049465348FEF751FB524C05E0601E04002D
:1033300002D14FF0010881E04F49C91C4C48FEF70B
:10334000A3FA0028F2D001214948FEF785FA494C3A
:1033500005E0601E040002D14FF001086EE046490E
:103360004348FEF791FA0028F3D07806010E0122B7
:103370003F48FEF721FB3F4C05E0601E040002D1F0
:103380004FF001085AE03C49491C3948FEF77CFAE5
:103390000028F2D0012D1ED100213548FEF728FA71
:1033A00033481830008801213148FEF761FA314C6A
:1033B00005E0601E040002D14FF001083EE02E49F6
:1033C0003F312B48FEF760FA0028F2D02848FEF77C
:1033D000EFFA30702DE026481830008823E0012DE8
:1033E00003D100212248FEF703FA224C0DE0601EB3
:1033F00004000AD101211E48FEF73AFA01211C48B7
:10340000FEF7F6F94FF0010818E01B493F31184864
:10341000FEF73AFA0028EAD01548FEF7C9FA06F88E
:10342000010B681EC5B2002DD9D101211048FEF74D
:103430001FFA01210E48FEF7DBF900BF00BF0B4861
:10344000006830B100231A4619460848006802F0A7
:10345000F3FF00BFB8F1000F02D0FFF701FF02E059
:103460000020064908604046BDE8F087780000204B
:1034700000540040A0860100010000107C000020E4
:103480002DE9F041054688461646002700BF394819
:10349000006830B100235A1E19463648006802F011
:1034A0009DFE00BF01213448FEF7D6F9334C04E0FD
:1034B000601E040001D1012745E031492E48FEF786
:1034C000E3F90028F4D06806010E00222A48FEF72E
:1034D00073FA2A4C04E0601E040001D1012732E097
:1034E0002749491C2448FEF7CFF90028F3D0224889
:1034F0001830008841462048FEF767FA1F4C04E068
:10350000601E040001D101271DE01D497F311A48CA
:10351000FEF7BAF90028F3D031461748FEF755FAFE
:10352000164C04E0601E040001D101270BE0144991
:10353000C91C1148FEF7A8F90028F3D001210E4854
:10354000FEF796F900BF00BF0A48006830B10023BB
:103550001A4619460748006802F06EFF00BF17B10F
:10356000FFF77EFE02E00020064908603846BDE80D
:10357000F08100007800002000540040A086010087
:10358000010000107C00002010B54FF44070FEF7E1
:10359000A3FB024801F0F4FC10BD000080841E0073
:1035A00000B589B001210420FEF7C0FB01210846C7
:1035B000FEF79CFB0F20ADF8200018208DF82300AB
:1035C00003208DF8220008A92A48FEF782F805A8F2
:1035D000FEF730FF4720ADF814000020ADF81600CC
:1035E00044F61F60ADF818000020ADF81A0005A9D8
:1035F0004FF08040FEF7CCFE01A8FEF7B6FE60203B
:10360000ADF804000120ADF806004FF47A70ADF873
:103610000A000020ADF80C0001A94FF08040FEF731
:1036200049FD01A94FF08040FEF79AFD01A94FF036
:103630008040FEF7F5FD01A94FF08040FEF74AFEFD
:103640000821C806FEF782FD0821C806FEF7DAFD4C
:103650000821C806FEF734FE0821C806FEF778FEEA
:1036600001218807FEF70EFD01218807FEF716FDF0
:1036700009B000BD0008014070B505460C46B4F520
:103680007A7F01DA4FF47A7440F6FC00844200DD60
:103690000446012D06D0022D0AD0032D0ED0042D94
:1036A00018D111E021464FF08040FEF768FE11E08E
:1036B00021464FF08040FEF764FE0BE021464FF0BC
:1036C0008040FEF760FE05E021464FF08040FEF7A7
:1036D0005CFE00BF00BF70BD10B540F24C41012040
:1036E000FFF7CAFF40F24C410220FFF7C5FF40F24E
:1036F0004C410320FFF7C0FF40F24C410420FFF78C
:10370000BBFF40F6B83001F049FE4FF47A7101205A
:10371000FFF7B2FF4FF47A710220FFF7ADFF4FF4CD
:103720007A710320FFF7A8FF4FF47A710420FFF7A6
:10373000A3FF10BD2DE9F04704460CB9BDE8F087A2
:1037400042480168006803F0B1FC814640480168C6
:10375000006803F0ABFC8246494603F0D5FA804688
:103760004FF0804103F0A2FC07464FF07E5103F07A
:103770009AFD0546374801683448006803F096FC16
:103780008046334801683448006803F08FFC814666
:10379000414603F0B9FA07464FF0804103F086FC3A
:1037A00006462946FFF75EF8206029480168294847
:1037B000006803F07BFC074624480168264800683F
:1037C00003F074FC8046394603F000FE06464FF0D5
:1037D000804103F06BFC0546FEF7B2FF60601D48B8
:1037E0000168006803F062FC8146184801680068BF
:1037F00003F05CFC8246494603F086FA80464FF0AF
:10380000804103F053FC07464FF07E5103F04BFD1F
:1038100005460E4801680E48006803F047FC8046E4
:103820000C4801680C48006803F040FC81464146A2
:1038300003F06AFA07464FF0804103F037FC064672
:103840002946FFF70FF8A06000BF77E710000020BF
:103850000C000020140000200800002010B54FF0DC
:103860007E53094C23600023084C2360084C2360DE
:10387000084C2360084C2360084C2360084B1860F8
:10388000084B196010BD0000080000200C0000204B
:103890001000002014000020180000201C00002050
:1038A00020000020240000202DE9FF4F8DB080462D
:1038B00089461C461B99084603F0F8FB06901A99A6
:1038C000084603F0F3FB21460490204603F0EEFB8C
:1038D0000390049903F018FA0590069903F014FA7E
:1038E000079001F0C9FA0C90E9490C9803F0AAFB83
:1038F00002D211B0BDE8F08F4FF07E500C9903F06A
:1039000077FA0C9020460C9903F0D0FB04460C99F2
:103910001A9803F0CBFB1A900C991B9803F0C6FB86
:103920001B90DC480168DC48006803F0BFFB069090
:10393000DA480168DA48006803F0B8FB0590069998
:1039400003F044FD4FF08041079003F0AFFB824647
:10395000D2480168CF48006803F0A8FB0690D04821
:103960000168CD48006803F0A1FB0590069903F0BB
:10397000CBF94FF08041079003F098FB0B90C748BC
:103980000168006803F092FB0790C2480168006874
:1039900003F08CFB0590C2480168006803F086FBC9
:1039A0000390BD480168006803F080FB0290039912
:1039B00003F00CFD0490059903F008FD06900799AB
:1039C00003F0A2F90A900B991B9803F06FFB079084
:1039D0000A991A9803F06AFB0690079903F0F6FC1F
:1039E000099020460A9903F061FB514607901B9805
:1039F00003F05CFB0690079903F0E8FC0890514641
:103A00001A9803F053FB079020460B9903F04EFBE6
:103A10000690079903F0DAFC83460021A14800686C
:103A200003F010FC37D29F480999006803F03EFB71
:103A300005901C9903F03AFB4FF08041069003F08B
:103A400035FB079098480168079803F05DF996499F
:103A5000086094480899006803F028FB05901C99B9
:103A600003F024FB4FF08041069003F01FFB07900A
:103A70008E480168079803F047F98C4908608A4826
:103A80000168404603F040F980468848016848468E
:103A900003F03AF9814686480999006803F006FB6D
:103AA0004146079003F030F9804681480899006844
:103AB00003F0FCFA4946079003F026F9814659467F
:103AC0007B48006803F0F2FA07900F9903F01CF9A5
:103AD0000F9071480568724806686E4807686F481D
:103AE0000F99006803F0E2FA49460590384603F062
:103AF000DDFA039086F000404146019003F0D6FACB
:103B00000290039903F062FC0490059903F05EFCB7
:103B100006901C9903F0CAFA07905F48016807985D
:103B200003F0F2F85C49086049465C48006803F01D
:103B3000BDFA059038460F9903F0B8FA294603906C
:103B4000404603F0B3FA0290039903F0DDF80490C5
:103B5000059903F03BFC06901C9903F0A7FA079027
:103B60004F480168079803F0CFF84D4908604B486B
:103B70000168404603F09AFA059030460F9903F029
:103B800095FA49460390284603F090FA029003996B
:103B900003F01CFC0490059903F0B6F806901C99FC
:103BA00003F084FA07903B480168079803F0ACF8EB
:103BB000384908603946404603F078FA494605908E
:103BC000304603F073FA039028460F9903F06EFA1B
:103BD0000290039903F098F80490059903F0F6FB1E
:103BE00006901C9903F062FA07902C480168079828
:103BF00003F08AF82949086008460168006803F064
:103C000055FA069023480168006803F04FFA0490C3
:103C100023480168006803F049FA02901E480168D1
:103C2000006803F043FA0190029903F06DF80390E5
:103C3000049903F069F80590069903F065F8079078
:103C400001F01AF90C904FF07E500C9903F0D0F867
:103C50000C9011480C99006803F028FA0E4908608E
:103C60000F480C99006803F021FA0D4908600948D3
:103C70000C99006803F01AFA0649086007480C9985
:103C8000006803F013FA0549086000BF31E6000040
:103C9000BD378635100000200800002014000020E9
:103CA0000C00002024000020180000201C00002030
:103CB000200000201CB5FFF767FC0020012103460F
:103CC0008022CDE900101BA11C4802F04BFD1C48CE
:103CD000032100238022CDE900101AA11E4802F022
:103CE00041FD1E48042100238022CDE900101CA1C3
:103CF000204802F037FD0020062103464FF4807271
:103D0000CDE900101CA11E4802F02CFD0020052169
:103D100003464FF40072CDE900101AA11B4802F0CF
:103D200021FD1BA0FCF7D2FA02F032F901F0DEFB14
:103D300000201CBD765461736B31000049530008AC
:103D4000000000207461736B5F7573617274315F82
:103D50007265637600000000254F00080400002013
:103D60007461736B5F7573617274315F7072696EC9
:103D700074000000A54E0008765461736B52430036
:103D8000855D0008765461736B4643001155000849
:103D900048656C6C6F20576F726C64210A000000DC
:103DA0002DE9F04104461949204603F04BF900D2B1
:103DB00000241749204603F045F913D8144920463A
:103DC00003F071FA0746134903F070F906461049EB
:103DD00003F00EF8054603F0E9F800F27E4080B2E9
:103DE000BDE8F0810C49204603F05DFA07460B4917
:103DF00003F05CF906464FF0864102F0F9FF0546F4
:103E000003F0D4F800F57A7080B2E9E700002041B1
:103E10000000FE4200C08F4400007F4300001643B4
:103E20002DE9F04F89B04FF0000B0020089007906B
:103E30002E4908602E4908602E4908602EA0FCF724
:103E400045FADA4620E004A800F0B6F8584604998E
:103E500002F05AFF83460599089802F055FF089032
:103E6000DDE9061002F050FF079028209AFBF0F1E0
:103E700000FB11A010B924A0FCF728FA4FF47A70C7
:103E8000FFF7F8F80AF1010ABAF5FA7FDBDB1F4900
:103E9000584602F0ADFF154908601C49089802F029
:103EA000A7FF134908601949079802F0A1FF1149BB
:103EB00008600846006802F0FBFE04460D460C4808
:103EC000006802F0F5FE06460F460848006802F05A
:103ED000EFFE804642460B460DA0CDE90067CDE9D6
:103EE0000245FCF7F3F909B0BDE8F08F6C00002043
:103EF000700000207400002020206779726F20631A
:103F0000616C3A20000000002E0000000000FA431F
:103F100020646F6E652028626961733A20252E3314
:103F2000662C20252E33662C20252E3366290A0088
:103F30002DE9FC4104460CB9BDE8FC8106236A4624
:103F40003B216820FFF7ACF99DF801009DF80010B7
:103F500040EA012005B29DF803009DF8021040EAF6
:103F6000012006B29DF805009DF8041040EA0120EA
:103F700007B2284603F03AF880460E4801684046EA
:103F800002F036FF2060304603F030F880460948E2
:103F90000168404602F02CFF6060384603F026F8C6
:103FA000804604480168404602F022FFA06000BF3E
:103FB000C2E70000640000202DE9FC4704460CB96C
:103FC000BDE8FC8706236A4643216820FFF768F9AD
:103FD0009DF801009DF8001040EA012005B29DF80F
:103FE00003009DF8021040EA012006B29DF805008A
:103FF0009DF8041040EA012007B2284602F0F6FFBF
:10400000814617480168484602F0F2FE804615488E
:104010000168404603F0DAF92060304602F0E6FF1E
:1040200081460F480168484602F0E2FE80460E488D
:104030000168404603F0CAF96060384602F0D6FFD6
:10404000814607480168484602F0D2FE804607488C
:104050000168404603F0BAF9A06000BFB0E7000075
:10406000680000206C000020700000207400002018
:1040700001480068704700008400002038B5FFF751
:10408000B1F81D48006820B9012002F069F81A490A
:10409000086001236A4675216820FFF701F904468C
:1040A0000CB1012038BD9DF80000682801D0022025
:1040B000F8E700226B216820FFF7E2F900221921BE
:1040C0006820FFF7DDF902221A216820FFF7D8F9EE
:1040D00010221B216820FFF7D3F910221C21682031
:1040E000FFF7CEF90548064908604FF08B400549B7
:1040F00008600020D6E70000780000203333034238
:10410000680000206400002070B5DDE9044501600E
:10411000426083600026C66006614461856170BDAF
:104120000021C160016170472DE9F84F04460D463A
:1041300016463B49304602F085FF00D2394E2846EC
:10414000216903F043F98146314602F051FE804671
:1041500025612946206802F0A9FF82464146A068F1
:1041600002F0A4FF0090E168606802F09FFF8346C0
:104170005946504602F0C8FD8146009902F0C4FD40
:1041800007463846A16903F05DF80FD2A769002100
:10419000284602F057FF2CD23146284602F086FF0F
:1041A0008146E16802F0B0FDE06022E0A06980F0A5
:1041B00000493946484603F045F811D2A06980F01D
:1041C00000470021284603F03DF812D23146284628
:1041D00002F06CFF8146E16802F096FDE06008E0C5
:1041E0003146284602F062FF8146E16802F08CFD0C
:1041F000E0606169E06803F025F802D26069E06080
:104200000BE0606980F000494846E16803F01AF865
:1042100003D2606980F00040E0603846BDE8F88F66
:10422000BD3786350AD7233B2DE9F04105460E46BA
:104230001C4807681C480068001D00F009FF50B9C1
:104240001948006890F82C10012088401749096827
:10425000814316480160681C38B936B112480168BC
:10426000091D134800F032FF1AE07C190E4800685F
:104270004460BC4207D20C480168091D0D48006823
:1042800000F00AFF0CE008480168091D0A480068B0
:1042900000F002FF09480068844201D20748046028
:1042A000BDE8F081B00000209C000020B400002098
:1042B000B0030020A4000020A0000020CC000020BB
:1042C00010B5044600F026FF24480068401C23492E
:1042D00008602348006840B9214804600846006827
:1042E00001280DD100F0ECF90AE01E48006838B949
:1042F0001B480068C06AE16A884201D81848046017
:1043000019480068401C1849086008460068206485
:1043100094F82C1001208840144909680843134977
:104320000860E16A01EB8101114A02EB8100211D65
:1043300000F0CCFE00F018FF0A48006868B1084899
:104340000068C06AE16A884207D24FF0805009498C
:104350000860BFF34F8FBFF36F8F10BDAC0000201C
:104360009C000020B8000020C8000020B4000020FD
:10437000FC02002004ED00E010B500F0CBFE104878
:104380000068D0B90F4800F077FE0F4800F074FEC7
:104390000C480E4908600C480D49086000220C21A9
:1043A0000A2001F0EEFE064908600846006820B1C8
:1043B00008A10348006800F08BFF00F0D5FE10BD97
:1043C000E0000020C4030020D8030020D800002013
:1043D000DC000020546D72510000000070B523E035
:1043E00001F020FE1348006808B9012000E0002019
:1043F000054602F051FBBDB900F08CFE0D48C068C7
:10440000C468201D00F024FE0B480068401E0A49C5
:1044100008600A480068401E0849086000F0A4FED1
:10442000204600F060F800BF044800680028D7D19B
:1044300070BD00009C030020AC000020A8000020FC
:1044400070B504460D46206C70B1216CE0680844DC
:10445000E0606168E068884201D32068E060284637
:10446000226CE168FCF78EF870BD2DE9F04104463E
:104470000F4615464FF00008A66B206C40B9206827
:1044800060BB606802F058FA80460020606025E05A
:104490007DB93946226CA068FCF774F8216CA068DD
:1044A0000844A060D4E90110884217D32068A060B6
:1044B00014E03946226CE068FCF764F8216CE0688F
:1044C000401AE0602168E068884203D2216C60688D
:1044D000401AE060022D01D106B1761E701CA06367
:1044E0004046BDE8F08110B50446206B00F05AFE4E
:1044F000204600F057FE10BD0146084A12681268B7
:104500000AB9012200E000220A600A6822B9034ABF
:104510001268D268106800E000207047D8000020C0
:1045200030B54FF40053174800F007042CB1C01DFC
:1045300020F00700134C041B1B1B0246124C226088
:104540000024114D6C60D018083820F007000F4C83
:10455000206000240D4D2D686C600C4D2D682C6082
:104560001146441A4C60094C24680C60084D4C6894
:104570002C60084D4C682C604FF00044064D2C60B8
:1045800030BD0000EC030020F800002000010020F6
:1045900008010020040100200C01002000BFFFF7EB
:1045A0001DFF064800680128F9D94FF080500449E2
:1045B0000860BFF34F8FBFF36F8FF0E7FC0200205E
:1045C00004ED00E010B504464CB1002060602060AE
:1045D000E06000231A461946204601F02DFF10BD69
:1045E0002DE9F04106460D4617469846069C0DB942
:1045F000246000E02760E66325640121204601F085
:10460000CFFE84F84C80BDE8F0812DE9F05F824652
:104610000F4690469B460A9E0C9C4FEA8801A522B5
:10462000206BFCF726F8A8F10100216B01EB800953
:1046300029F0070909F0070008B9012000E000206F
:1046400050B900BF502080F31188BFF34F8FBFF3E4
:104650006F8F00BF00BFFEE7002507E0795D04F122
:1046600034004155785D00B902E06D1C0A2DF5D388
:1046700000BF00213D200155052E00D30426E6622F
:10468000A6640020E064201D00F003FD04F1180082
:1046900000F0FFFC2461C6F10500A0616462002007
:1046A000206584F854005A465146484600F03AFBCB
:1046B00020600B9808B10B980460BDE8F09F0000E3
:1046C00010B5002407E004EB84010F4A02EB8100DF
:1046D00000F0D2FC641C052CF5D30C4800F0CCFC97
:1046E0000B4800F0C9FC0B4800F0C6FC0A4800F07B
:1046F000C3FC0A4800F0C0FC0448094908600448AB
:104700000849086010BD0000FC0200206003002082
:1047100074030020880300209C030020B0030020C5
:10472000A0000020A400002010B50146164800E0BB
:10473000006803688B42FBD30246436813448B42F4
:1047400004D143684C682344436001460A464B68E1
:1047500013440468A34211D10C4C03682468A3429B
:1047600008D04B680468646823444B6003681B6886
:104770000B6005E0054B1B680B6001E003680B60F4
:10478000884200D0016010BDF80000200001002028
:104790002DE9F04104460D4616461F464FF000082D
:1047A00065602461B5420CD8F01BA169884202D330
:1047B0004FF0010811E0211D0948006800F06CFC71
:1047C0000BE0BE4204D2BD4202D34FF0010804E028
:1047D000211D0448006800F05FFC4046BDE8F08100
:1047E000DC000020D800002070B5054600F092FCE7
:1047F000A86B08B9012400E0002400F0B5FC2046B5
:1048000070BD70B5054600F085FCA86BE96B884269
:1048100001D1012400E0002400F0A6FC204670BD78
:10482000F8B505460F4616480068C068C468201DE4
:1048300000F00EFCE06901281DD1A06941192B464A
:104840003A462046FFF7A4FFA8B1002003462A46B7
:1048500001460090204602F0CDF9064656B900BF49
:10486000502080F31188BFF34F8FBFF36F8F00BFCD
:1048700000BFFEE700BF2046616A8847F8BD000020
:10488000D800002070B586B06AE00398002867DB86
:10489000059C606908B9012000E0002010B9201DC6
:1048A00000F0D6FB02A800F0BDF8054603980A28E0
:1048B00054D2DFE800F009050731334F06083234DF
:1048C00000BF00BF00BF00BF0498A2698118034663
:1048D0002A462046FFF75CFFE8B12046616A884718
:1048E000E069012817D1002000900498A1694218BE
:1048F00000231946204602F07DF9064656B900BF4E
:10490000502080F31188BFF34F8FBFF36F8F00BF2C
:1049100000BFFEE700BF22E000BF20E000BF049818
:10492000A061A06908B1012000E0002050B900BFDB
:10493000502080F31188BFF34F8FBFF36F8F00BFFC
:1049400000BFFEE7A06941192B462A462046FFF723
:104950001FFF04E0204600F025FC00E000BF00BF80
:1049600000231A4603A90448006801F037FC002818
:104970008BD106B070BD0000E0000020F8B5054600
:104980000C4601F04FFB684600F04CF806460098D4
:1049900020BB44B9B54206D802F07EF8314628461D
:1049A000FFF73EFF1CE03CB10E480068006808B904
:1049B000012000E000200446A91B22460A480068A6
:1049C00000F09CFC02F068F850B94FF080500749A5
:1049D0000860BFF34F8FBFF36F8F01E002F05CF808
:1049E000F8BD0000DC000020E000002004ED00E045
:1049F0000A490968096809B9012100E0002121B1CB
:104A00004FF0FF31064A116006E004490968C968A1
:104A1000C868034A4168116070470000A000002088
:104A2000CC00002070B5044601F0DCFE05460748C6
:104A30000068854204D200F00BF80120206001E0FC
:104A40000020206001480560284670BDE800002075
:104A50002DE9F84332E024480068C0680568224820
:104A60000068C068C468201D00F0F2FA2046616A40
:104A70008847E069012821D1A0694619AE4207D9CB
:104A800066602461211D1848006800F005FB15E0F0
:104A9000002003462A4601460090204602F0AAF86C
:104AA000074657B900BF502080F31188BFF34F8FDE
:104AB000BFF36F8F00BF00BFFEE700BF0A4800686A
:104AC000006808B9012000E000200028C3D0064893
:104AD000D0F8008005480068034908600348C0F822
:104AE0000080BDE8F8830000D8000020DC00002032
:104AF0000E480068401C08B9012000E0002050B9B1
:104B000000BF502080F31188BFF34F8FBFF36F8F2A
:104B100000BF00BFFEE700BF502080F31188BFF345
:104B20004F8FBFF36F8F00BF00BFFEE7EC00002088
:104B300008B500BF6846FFF7DFFC04462046009931
:104B4000FFF71CFFFFF79EFEF4E770B5044600F088
:104B5000E1FA94F9455010E0606A08B9012000E0DC
:104B6000002038B904F1240001F04AFF18B101F027
:104B70006FF800E003E0681E45B2002DECDC00BFDA
:104B8000FF2084F8450000F0EFFA00F0C3FA94F932
:104B9000445010E0206908B9012000E0002048B925
:104BA00004F1100001F02CFF08B101F051F8681E6B
:104BB00045B200E001E0002DECDC00BFFF2084F8EE
:104BC000440000F0D1FA70BD2DE9F04104464FF0E9
:104BD000000801F027FA4648006808B9FFF7A0FC72
:104BE00044480068204000286BD1D4B1083404F058
:104BF0000700B0B104F00700C0F10800044404F05D
:104C0000070008B9012000E0002050B900BF502083
:104C100080F31188BFF34F8FBFF36F8F00BF00BFCA
:104C2000FEE7002C4DD034480068844249D8334E0A
:104C30003046056801E02E462D686868A04202D221
:104C400028680028F7D12A480068854239D03068A2
:104C500000F10808286830606868001B102819D91E
:104C60002F1907F0070008B9012000E0002050B913
:104C700000BF502080F31188BFF34F8FBFF36F8FB9
:104C800000BF00BFFEE76868001B78606C603846B4
:104C9000FFF74AFD184968680968081A164908604C
:104CA0000846006816490968884203D2124800681D
:104CB000134908600F496868096808436860002064
:104CC000286001F0E9FE08F0070008B9012000E0C3
:104CD000002050B900BF502080F31188BFF34F8FE0
:104CE000BFF36F8F00BF00BFFEE74046BDE8F08115
:104CF000000100200C01002004010020F800002029
:104D0000080100200648006830B10549096801F132
:104D10004C00C96C491C01600148006870470000E4
:104D20009C000020001F4FF080730360001F21F0E3
:104D300001030360001F034B036014380260203836
:104D400070470000F14A00082DE9F04105460E4683
:104D5000AC1B002C04DB012C02DA0020BDE8F08142
:104D6000204602F043F90746014902F041F8F5E711
:104D70000000FE4200B587B0012141F20C00FCF7B3
:104D8000D5FFA020ADF8180018208DF81B000320D7
:104D90008DF81A0006A92748FCF79BFC4020ADF8C7
:104DA000180004208DF81B0006A92248FCF791FC8E
:104DB0001020ADF818008DF81B0003208DF81A00A4
:104DC00006A91C48FCF785FC0120ADF8180006A9CF
:104DD0001948FCF77EFC01211748FCF705FD10215E
:104DE0001448FCF703FD1548FDF736F84FF48270C0
:104DF000ADF806000020ADF80400ADF80800ADF8ED
:104E00000A00ADF80C004FF40070ADF80E00102051
:104E1000ADF810000020ADF812000720ADF8140026
:104E200001A90648FDF752F801210448FDF708F8EA
:104E300007B000BD00080140000C014000300140F7
:104E400010B5044600BF02210A48FDF731F80028DA
:104E5000F9D021460748FDF737F800BF0121054882
:104E6000FDF726F80028F9D00248FDF72AF8C0B26D
:104E700010BD00000030014070B5054602F01EFA7A
:104E8000044620F00040C0F1FF40C00F08D025F0DC
:104E90000040C0F1FF40C00F04BF0120FBF742FCFF
:104EA000204670BD35E01B4802780078401C194B45
:104EB00018701948111800235A1E1848006801F08C
:104EC0008DF914480078401E1349085C0A2803D065
:104ED00010480078FF281CD300200E4908700E4CA3
:104EE0000EE014F8015B00BF00BF80210C48FDF705
:104EF000F6FA0028F9D029460948FDF7BEFB00BFA5
:104F000020780028EDD100BF4FF480710248FBF7F4
:104F1000B8FBC8E799000020BC0100208C000020ED
:104F20000038014023E0124802780078401C104B02
:104F300018701048111800235A1E0F48006801F01D
:104F40004DF90B480078401E0A49085C0A2803D036
:104F5000074800781F280AD3002005490870054932
:104F600006A0FBF7B3F920210248FBF78AFBDAE73A
:104F7000980000209C01002088000020257300007C
:104F800010B586B0044601210420FCF7CFFE0121B4
:104F90008803FCF7CBFE4FF40070ADF81400182026
:104FA0008DF8170003208DF8160005A92448FCF79A
:104FB00090FB4FF48060ADF8140004208DF81700CA
:104FC00005A91F48FCF785FB01940020ADF80800F7
:104FD000ADF80C00ADF80A000C20ADF80E00002072
:104FE000ADF8100001A91748FDF7D6FA25208DF875
:104FF000000008208DF8010000208DF8020001203B
:105000008DF803006846FCF72FFE012240F225517F
:105010000C48FDF79BFA01210A48FDF754FA0022DB
:105020000121202001F0ADF807490860002201218C
:10503000080201F0A6F80549086006B010BD00009E
:105040000008014000380140880000208C0000204A
:1050500001460A69D1E901309860D1E9010358603D
:105060005068884201D1886850600020086110684B
:10507000401E10601068704700F1080141604FF059
:10508000FF31816000F10801C16001610021016010
:10509000704700210161704710B502460B685C1C27
:1050A0000CB9106907E002F1080000E040684468AC
:1050B00024689C42FAD944684C604C68A1608860BE
:1050C00041600A611468641C146010BD42684A6043
:1050D00093688B60936859609160086103685B1CFA
:1050E000036070470A480068B0F57A7F01D101205B
:1050F00000E0002050B900BF502080F31188BFF3BA
:105100004F8FBFF36F8F00BF00BFFEE770470000F7
:10511000EC00002000BF502080F31188BFF34F8FB8
:10512000BFF36F8F00BF0E480068401C0C49086039
:1051300008460068012812D10A480068C0B208B9C0
:10514000012000E0002050B900BF502080F31188FA
:10515000BFF34F8FBFF36F8F00BF00BFFEE77047F5
:10516000EC00002004ED00E00D48006850B900BFDD
:10517000502080F31188BFF34F8FBFF36F8F00BFB4
:1051800000BFFEE706480068401E05490860084663
:10519000006820B9002080F3118800BF00BF70476D
:1051A000EC00002070B506463546002E3FD0083D85
:1051B0002C461F4960680968084008B1012000E0DA
:1051C000002050B900BF502080F31188BFF34F8FEB
:1051D000BFF36F8F00BF00BFFEE7206808B9012052
:1051E00000E0002050B900BF502080F31188BFF3C9
:1051F0004F8FBFF36F8F00BF00BFFEE70C496068A1
:105200000968084098B1206888B909496068096848
:105210008843606000F006FF06496068096808443A
:10522000044908602046FFF77FFA01F035FC70BDA5
:105230000C01002004010020064800684FF47A7138
:10524000B0FBF1F0401E4FF0E021486107200861FB
:10525000704700002401002070B5FBF713F80446E6
:10526000102C16D304F1E02090F8F0531548007884
:10527000854201DB012000E0002050B900BF502032
:1052800080F31188BFF34F8FBFF36F8F00BF00BF54
:10529000FEE70D48006800F4E0600C4909688842A8
:1052A00001D8012000E0002050B900BF502080F359
:1052B0001188BFF34F8FBFF36F8F00BF00BFFEE7B2
:1052C00070BD0000F00000200CED00E0F4000020B4
:1052D000024600200BE0084B53F8303033B9064B40
:1052E00043F8301003EBC0035A6002E0401C08286A
:1052F000F1D300BF70470000BC0200202DE9F0414F
:1053000005460E4617462C46FFF704FF94F9440065
:10531000401C10B9002084F8440094F94500401C5A
:1053200010B9002084F84500FFF71EFFA06B28B9D4
:105330003A46314604F1240000F0ACFC2046FFF769
:1053400004FCBDE8F081000008B501211020FCF745
:10535000EDFC10208DF8030003208DF802004FF4BF
:105360000050ADF8000069460B48FCF7B2F911E0B7
:105370004FF400510848FCF737FA4FF47A7000F008
:105380000DF84FF400510448FCF730FA4FF47A70EE
:1053900000F004F8ECE700000010014070B504468E
:1053A0000025D4B11248006808B9012000E00020AF
:1053B00050B900BF502080F31188BFF34F8FBFF367
:1053C0006F8F00BF00BFFEE700F02CFE00212046DB
:1053D000FEF72AFF01F060FB05463DB94FF0805013
:1053E00004490860BFF34F8FBFF36F8F70BD00009B
:1053F000D400002004ED00E070B50546FFF78AFEFA
:1054000015B93048006800E028460446201DFFF723
:105410001FFE78B9E06A00EB80002B4951F82000AC
:1054200040B994F82C10012088402849096881432C
:1054300026480160A06A18B104F11800FFF708FEC1
:1054400023480068401C224908601E4800688442C6
:1054500009D1211D1F48FFF739FE1F480068401C75
:105460001D49086009E01D480068401E1B4908608E
:105470002046FFF738F8FFF7BBFAFFF775FE18482C
:105480000068E8B10F480068844219D115480068E7
:1054900008B9012000E0002050B900BF502080F37F
:1054A0001188BFF34F8FBFF36F8F00BF00BFFEE7C0
:1054B0004FF080500C490860BFF34F8FBFF36F8FE0
:1054C00070BD00009C000020FC020020B400002001
:1054D000C80000209C030020A8000020AC00002091
:1054E000B8000020D400002004ED00E010B500BF9B
:1054F000502080F31188BFF34F8FBFF36F8F00BF31
:10550000002002490860FFF7EDFD10BDB800002043
:1055100000B5CDB000203990389030902E902C906E
:105520002B902A902990FEF7A9FD38B1E3A0FAF755
:10553000CDFE0020FFF760FF4DB000BDE5A0FAF7FB
:10554000C5FE6420FFF72AFFFEF76AFCEBA0FAF71E
:10555000BDFEFEF725F8FEF7BFF8EEA0FAF7B6FE9F
:1055600001F040F93F90EF4AEF494807FEF776F91E
:10557000FDF7A6FA182132A8FBF7A5F8EBA0FAF779
:10558000A5FEEFA0FAF7A2FEF8A0FAF79FFE4AE305
:1055900001F028F93D9049A8FEF7CAFC46A8FEF79D
:1055A0000BFD01F01FF93C90FEF762FD2890DDE94C
:1055B0002801884207D9DDE92801411A2B980844BF
:1055C0002B902898299001F00DF93E90DDE93E01DD
:1055D000401A3190DDE93C01401A2F90DDE930108E
:1055E000884201D931983090DDE92E10884201D9E6
:1055F0002F982E9031980F2802D92A98401C2A9073
:10560000319801F00BFD4FF07E51279001F04EFDD7
:10561000DF49289001F0ECFB3A903E983F90DD493D
:105620003A9801F00FFE02D2BF483A9006E0DA49FC
:105630003A9801F007FD01D2D8483A904698D849E7
:10564000289001F033FD42904798D549289001F009
:105650002DFD41904898D249289001F027FD4090B7
:105660004FF07C513A9801F021FD014628904B9A69
:105670004A98CDE901210090499803462790409A25
:1056800041994298FEF710F943A8FEF753F8C54830
:10569000006870B100231A4623A9C248006800F0D0
:1056A0009DFD012804D1182223A932A8FAF7AFFFE3
:1056B00000BF9DF8D810C1F340019DF8D82002F03A
:1056C00001029DF8D9303A98CDE90532CDE90710AD
:1056D000DDE93213DDE93402CDE90113CDE903023E
:1056E000409800904498289043982790419B429A74
:1056F0002899FDF769FA01F075F83B90DDE93B0167
:10570000401A2D90DDE92C10884201D92D982C905B
:10571000A5480178389881423FD0A348007830B13D
:10572000012808D002280AD0032832D12DE09FA0FA
:10573000FAF7CCFD2DE0A5A0FAF7C8FD29E0B1A04D
:10574000FAF7C4FDB9A0BAA1BAA2BCA3CDE90A3246
:10575000CDE90C10BAA0BBA1BBA2BCA3CDE9063217
:10576000CDE90810BAA0BBA1BCA2BEA3CDE902320C
:10577000CDE90410BDA0BEA1BEA3BFA2CDE900101B
:10578000BFA1C148FAF7A2FD03E0C0A0FAF79EFD51
:1057900000BF00BF8448007838908348007860BB21
:1057A0006421399890FBF1F201FB1200002823D10B
:1057B0004498C349229001F079FC239001F078FAD3
:1057C000CDE926014398BE49229001F06FFC239059
:1057D00001F06EFACDE9240130980290DDE926014E
:1057E000CDE90001B7A0DDE92423FAF76FFD002021
:1057F00030902E902B902A900EE26B480078012872
:105800004DD16421399890FBF1F201FB1200002880
:10581000F2D14498B649239001F048FC249001F05D
:10582000A9FB0A2190FBF1F201FB12002890449899
:10583000249001F09FFBC0EBC001C1EB80102790CA
:105840004398AB49239001F031FC249001F092FB86
:105850000A2290FBF2F102FB11002690439824905B
:1058600001F088FBC0EBC001C1EB801025902E9B9E
:10587000309ADDE92A01CDE90223CDE904109D48E3
:1058800001882898CDE900019B4825A90EC9FAF79F
:105890001DFD002030902E902B902A90BCE12821F5
:1058A000399890FBF1F201FB12000028A4D13E4888
:1058B0000078022801D191A029E121E14D5055360F
:1058C00030353020696E6974206661696C656421C9
:1058D0000A0000004D50553630353020696E69742D
:1058E000204F4B2C2063616C6962726174696E6732
:1058F000206779726F2E2E2E0A0000004779726F92
:105900002063616C6962726174696F6E20646F6E8E
:10591000650A000045534320696E697420646F6E08
:10592000650A00000AD7233B0AD7A33B0A3D3D3D49
:10593000204643205461736B203D3D3D0A0000002A
:1059400053746174653A20574149545F52432D3E68
:1059500049444C452D3E284B312941524D45442068
:10596000204B323D64697361726D0A005B57414997
:10597000545F52435D2077616974696E6720666F7A
:1059800072205243207461736B2E2E2E0A00000089
:1059900000007A44CDCC4C3E6F12833A0AD7233CA8
:1059A00035FA8E3C340000204C0000205B57414902
:1059B000545F52435D205243206C6F73742C206DF2
:1059C0006F746F7273206F66660A00005B49444C07
:1059D000455D20524320636F6E6E65637465642C71
:1059E000207468726F74746C653D3131353020E21B
:1059F0008094207072657373204B3120746F206126
:105A0000726D0A000A5B41524D45445D203D3D3DAB
:105A100020666C6967687420636F6E74726F6C20A7
:105A2000616374697665203D3D3D0A004552520030
:105A30004932430044546D73000000004D340000AF
:105A40004D3300004D3200004D3100005354000032
:105A500054485200545F595700000000545F50549E
:105A600000000000545F524C00000000415A00004A
:105A7000475A00005941570050495443480000001C
:105A8000524F4C4C00000000407600085B464149F4
:105A90004C534146455D205243206C6F737420691E
:105AA0006E20666C6967687420E28094206175746A
:105AB0006F2D6C6576656C20686F6C640A00000061
:105AC000E12E65425B574149545F52435D20726F3E
:105AD0006C6C3D252B2E31662070697463683D2502
